{
  "_format": "hh-sol-artifact-1",
  "contractName": "DevToken",
  "sourceName": "contracts/erc20token.sol",
  "abi": [
    {
      "inputs": [],
      "stateMutability": "nonpayable",
      "type": "constructor"
    },
    {
      "anonymous": false,
      "inputs": [
        {
          "indexed": true,
          "internalType": "address",
          "name": "owner",
          "type": "address"
        },
        {
          "indexed": true,
          "internalType": "address",
          "name": "spender",
          "type": "address"
        },
        {
          "indexed": false,
          "internalType": "uint256",
          "name": "value",
          "type": "uint256"
        }
      ],
      "name": "Approval",
      "type": "event"
    },
    {
      "anonymous": false,
      "inputs": [
        {
          "indexed": true,
          "internalType": "address",
          "name": "from",
          "type": "address"
        },
        {
          "indexed": true,
          "internalType": "address",
          "name": "to",
          "type": "address"
        },
        {
          "indexed": false,
          "internalType": "uint256",
          "name": "value",
          "type": "uint256"
        }
      ],
      "name": "Transfer",
      "type": "event"
    },
    {
      "inputs": [
        {
          "internalType": "address",
          "name": "owner",
          "type": "address"
        },
        {
          "internalType": "address",
          "name": "spender",
          "type": "address"
        }
      ],
      "name": "allowance",
      "outputs": [
        {
          "internalType": "uint256",
          "name": "",
          "type": "uint256"
        }
      ],
      "stateMutability": "view",
      "type": "function"
    },
    {
      "inputs": [
        {
          "internalType": "address",
          "name": "spender",
          "type": "address"
        },
        {
          "internalType": "uint256",
          "name": "amount",
          "type": "uint256"
        }
      ],
      "name": "approve",
      "outputs": [
        {
          "internalType": "bool",
          "name": "",
          "type": "bool"
        }
      ],
      "stateMutability": "nonpayable",
      "type": "function"
    },
    {
      "inputs": [
        {
          "internalType": "address",
          "name": "account",
          "type": "address"
        }
      ],
      "name": "balanceOf",
      "outputs": [
        {
          "internalType": "uint256",
          "name": "",
          "type": "uint256"
        }
      ],
      "stateMutability": "view",
      "type": "function"
    },
    {
      "inputs": [],
      "name": "cap",
      "outputs": [
        {
          "internalType": "uint256",
          "name": "",
          "type": "uint256"
        }
      ],
      "stateMutability": "view",
      "type": "function"
    },
    {
      "inputs": [],
      "name": "decimals",
      "outputs": [
        {
          "internalType": "uint8",
          "name": "",
          "type": "uint8"
        }
      ],
      "stateMutability": "view",
      "type": "function"
    },
    {
      "inputs": [
        {
          "internalType": "address",
          "name": "spender",
          "type": "address"
        },
        {
          "internalType": "uint256",
          "name": "subtractedValue",
          "type": "uint256"
        }
      ],
      "name": "decreaseAllowance",
      "outputs": [
        {
          "internalType": "bool",
          "name": "",
          "type": "bool"
        }
      ],
      "stateMutability": "nonpayable",
      "type": "function"
    },
    {
      "inputs": [
        {
          "internalType": "address",
          "name": "spender",
          "type": "address"
        },
        {
          "internalType": "uint256",
          "name": "addedValue",
          "type": "uint256"
        }
      ],
      "name": "increaseAllowance",
      "outputs": [
        {
          "internalType": "bool",
          "name": "",
          "type": "bool"
        }
      ],
      "stateMutability": "nonpayable",
      "type": "function"
    },
    {
      "inputs": [],
      "name": "initialSupply",
      "outputs": [
        {
          "internalType": "uint256",
          "name": "",
          "type": "uint256"
        }
      ],
      "stateMutability": "view",
      "type": "function"
    },
    {
      "inputs": [
        {
          "internalType": "address",
          "name": "receiver",
          "type": "address"
        },
        {
          "internalType": "uint256",
          "name": "amount",
          "type": "uint256"
        }
      ],
      "name": "issueTokens",
      "outputs": [],
      "stateMutability": "nonpayable",
      "type": "function"
    },
    {
      "inputs": [],
      "name": "name",
      "outputs": [
        {
          "internalType": "string",
          "name": "",
          "type": "string"
        }
      ],
      "stateMutability": "view",
      "type": "function"
    },
    {
      "inputs": [],
      "name": "symbol",
      "outputs": [
        {
          "internalType": "string",
          "name": "",
          "type": "string"
        }
      ],
      "stateMutability": "view",
      "type": "function"
    },
    {
      "inputs": [],
      "name": "totalSupply",
      "outputs": [
        {
          "internalType": "uint256",
          "name": "",
          "type": "uint256"
        }
      ],
      "stateMutability": "view",
      "type": "function"
    },
    {
      "inputs": [
        {
          "internalType": "address",
          "name": "to",
          "type": "address"
        },
        {
          "internalType": "uint256",
          "name": "amount",
          "type": "uint256"
        }
      ],
      "name": "transfer",
      "outputs": [
        {
          "internalType": "bool",
          "name": "",
          "type": "bool"
        }
      ],
      "stateMutability": "nonpayable",
      "type": "function"
    },
    {
      "inputs": [
        {
          "internalType": "address",
          "name": "from",
          "type": "address"
        },
        {
          "internalType": "address",
          "name": "to",
          "type": "address"
        },
        {
          "internalType": "uint256",
          "name": "amount",
          "type": "uint256"
        }
      ],
      "name": "transferFrom",
      "outputs": [
        {
          "internalType": "bool",
          "name": "",
          "type": "bool"
        }
      ],
      "stateMutability": "nonpayable",
      "type": "function"
    }
  ],
  "bytecode": "0x60a060405269152d02c7e14af68000006005553480156200001f57600080fd5b5069d3c21bcecceda10000006040518060400160405280600481526020017f4a4f484e000000000000000000000000000000000000000000000000000000008152506040518060400160405280600381526020017f4a504300000000000000000000000000000000000000000000000000000000008152508160039080519060200190620000af929190620002bc565b508060049080519060200190620000c8929190620002bc565b5050506000811162000111576040517f08c379a00000000000000000000000000000000000000000000000000000000081526004016200010890620003cb565b60405180910390fd5b80608081815250505062000133336005546200013960201b620006741760201c565b6200058a565b600073ffffffffffffffffffffffffffffffffffffffff168273ffffffffffffffffffffffffffffffffffffffff161415620001ac576040517f08c379a0000000000000000000000000000000000000000000000000000000008152600401620001a390620003ed565b60405180910390fd5b620001c060008383620002b260201b60201c565b8060026000828254620001d491906200043d565b92505081905550806000808473ffffffffffffffffffffffffffffffffffffffff1673ffffffffffffffffffffffffffffffffffffffff16815260200190815260200160002060008282546200022b91906200043d565b925050819055508173ffffffffffffffffffffffffffffffffffffffff16600073ffffffffffffffffffffffffffffffffffffffff167fddf252ad1be2c89b69c2b068fc378daa952ba7f163c4a11628f55a4df523b3ef836040516200029291906200040f565b60405180910390a3620002ae60008383620002b760201b60201c565b5050565b505050565b505050565b828054620002ca90620004a4565b90600052602060002090601f016020900481019282620002ee57600085556200033a565b82601f106200030957805160ff19168380011785556200033a565b828001600101855582156200033a579182015b82811115620003395782518255916020019190600101906200031c565b5b5090506200034991906200034d565b5090565b5b80821115620003685760008160009055506001016200034e565b5090565b60006200037b6015836200042c565b9150620003888262000538565b602082019050919050565b6000620003a2601f836200042c565b9150620003af8262000561565b602082019050919050565b620003c5816200049a565b82525050565b60006020820190508181036000830152620003e6816200036c565b9050919050565b60006020820190508181036000830152620004088162000393565b9050919050565b6000602082019050620004266000830184620003ba565b92915050565b600082825260208201905092915050565b60006200044a826200049a565b915062000457836200049a565b9250827fffffffffffffffffffffffffffffffffffffffffffffffffffffffffffffffff038211156200048f576200048e620004da565b5b828201905092915050565b6000819050919050565b60006002820490506001821680620004bd57607f821691505b60208210811415620004d457620004d362000509565b5b50919050565b7f4e487b7100000000000000000000000000000000000000000000000000000000600052601160045260246000fd5b7f4e487b7100000000000000000000000000000000000000000000000000000000600052602260045260246000fd5b7f45524332304361707065643a2063617020697320300000000000000000000000600082015250565b7f45524332303a206d696e7420746f20746865207a65726f206164647265737300600082015250565b6080516115ca620005a6600039600061040a01526115ca6000f3fe608060405234801561001057600080fd5b50600436106100ea5760003560e01c8063395093511161008c57806395d89b411161006657806395d89b4114610261578063a457c2d71461027f578063a9059cbb146102af578063dd62ed3e146102df576100ea565b806339509351146101e5578063475a9fa91461021557806370a0823114610231576100ea565b806323b872dd116100c857806323b872dd1461015b578063313ce5671461018b578063355274ea146101a9578063378dc3dc146101c7576100ea565b806306fdde03146100ef578063095ea7b31461010d57806318160ddd1461013d575b600080fd5b6100f761030f565b6040516101049190610ffe565b60405180910390f35b61012760048036038101906101229190610e06565b6103a1565b6040516101349190610fe3565b60405180910390f35b6101456103c4565b6040516101529190611140565b60405180910390f35b61017560048036038101906101709190610db7565b6103ce565b6040516101829190610fe3565b60405180910390f35b6101936103fd565b6040516101a0919061115b565b60405180910390f35b6101b1610406565b6040516101be9190611140565b60405180910390f35b6101cf61042e565b6040516101dc9190611140565b60405180910390f35b6101ff60048036038101906101fa9190610e06565b610434565b60405161020c9190610fe3565b60405180910390f35b61022f600480360381019061022a9190610e06565b61046b565b005b61024b60048036038101906102469190610d52565b610479565b6040516102589190611140565b60405180910390f35b6102696104c1565b6040516102769190610ffe565b60405180910390f35b61029960048036038101906102949190610e06565b610553565b6040516102a69190610fe3565b60405180910390f35b6102c960048036038101906102c49190610e06565b6105ca565b6040516102d69190610fe3565b60405180910390f35b6102f960048036038101906102f49190610d7b565b6105ed565b6040516103069190611140565b60405180910390f35b60606003805461031e90611270565b80601f016020809104026020016040519081016040528092919081815260200182805461034a90611270565b80156103975780601f1061036c57610100808354040283529160200191610397565b820191906000526020600020905b81548152906001019060200180831161037a57829003601f168201915b5050505050905090565b6000806103ac6107d4565b90506103b98185856107dc565b600191505092915050565b6000600254905090565b6000806103d96107d4565b90506103e68582856109a7565b6103f1858585610a33565b60019150509392505050565b60006012905090565b60007f0000000000000000000000000000000000000000000000000000000000000000905090565b60055481565b60008061043f6107d4565b905061046081858561045185896105ed565b61045b9190611192565b6107dc565b600191505092915050565b6104758282610cb4565b5050565b60008060008373ffffffffffffffffffffffffffffffffffffffff1673ffffffffffffffffffffffffffffffffffffffff168152602001908152602001600020549050919050565b6060600480546104d090611270565b80601f01602080910402602001604051908101604052809291908181526020018280546104fc90611270565b80156105495780601f1061051e57610100808354040283529160200191610549565b820191906000526020600020905b81548152906001019060200180831161052c57829003601f168201915b5050505050905090565b60008061055e6107d4565b9050600061056c82866105ed565b9050838110156105b1576040517f08c379a00000000000000000000000000000000000000000000000000000000081526004016105a890611100565b60405180910390fd5b6105be82868684036107dc565b60019250505092915050565b6000806105d56107d4565b90506105e2818585610a33565b600191505092915050565b6000600160008473ffffffffffffffffffffffffffffffffffffffff1673ffffffffffffffffffffffffffffffffffffffff16815260200190815260200160002060008373ffffffffffffffffffffffffffffffffffffffff1673ffffffffffffffffffffffffffffffffffffffff16815260200190815260200160002054905092915050565b600073ffffffffffffffffffffffffffffffffffffffff168273ffffffffffffffffffffffffffffffffffffffff1614156106e4576040517f08c379a00000000000000000000000000000000000000000000000000000000081526004016106db90611120565b60405180910390fd5b6106f060008383610d1e565b80600260008282546107029190611192565b92505081905550806000808473ffffffffffffffffffffffffffffffffffffffff1673ffffffffffffffffffffffffffffffffffffffff16815260200190815260200160002060008282546107579190611192565b925050819055508173ffffffffffffffffffffffffffffffffffffffff16600073ffffffffffffffffffffffffffffffffffffffff167fddf252ad1be2c89b69c2b068fc378daa952ba7f163c4a11628f55a4df523b3ef836040516107bc9190611140565b60405180910390a36107d060008383610d23565b5050565b600033905090565b600073ffffffffffffffffffffffffffffffffffffffff168373ffffffffffffffffffffffffffffffffffffffff16141561084c576040517f08c379a0000000000000000000000000000000000000000000000000000000008152600401610843906110e0565b60405180910390fd5b600073ffffffffffffffffffffffffffffffffffffffff168273ffffffffffffffffffffffffffffffffffffffff1614156108bc576040517f08c379a00000000000000000000000000000000000000000000000000000000081526004016108b390611040565b60405180910390fd5b80600160008573ffffffffffffffffffffffffffffffffffffffff1673ffffffffffffffffffffffffffffffffffffffff16815260200190815260200160002060008473ffffffffffffffffffffffffffffffffffffffff1673ffffffffffffffffffffffffffffffffffffffff168152602001908152602001600020819055508173ffffffffffffffffffffffffffffffffffffffff168373ffffffffffffffffffffffffffffffffffffffff167f8c5be1e5ebec7d5bd14f71427d1e84f3dd0314c0f7b2291e5b200ac8c7c3b9258360405161099a9190611140565b60405180910390a3505050565b60006109b384846105ed565b90507fffffffffffffffffffffffffffffffffffffffffffffffffffffffffffffffff8114610a2d5781811015610a1f576040517f08c379a0000000000000000000000000000000000000000000000000000000008152600401610a1690611060565b60405180910390fd5b610a2c84848484036107dc565b5b50505050565b600073ffffffffffffffffffffffffffffffffffffffff168373ffffffffffffffffffffffffffffffffffffffff161415610aa3576040517f08c379a0000000000000000000000000000000000000000000000000000000008152600401610a9a906110a0565b60405180910390fd5b600073ffffffffffffffffffffffffffffffffffffffff168273ffffffffffffffffffffffffffffffffffffffff161415610b13576040517f08c379a0000000000000000000000000000000000000000000000000000000008152600401610b0a90611020565b60405180910390fd5b610b1e838383610d1e565b60008060008573ffffffffffffffffffffffffffffffffffffffff1673ffffffffffffffffffffffffffffffffffffffff16815260200190815260200160002054905081811015610ba4576040517f08c379a0000000000000000000000000000000000000000000000000000000008152600401610b9b90611080565b60405180910390fd5b8181036000808673ffffffffffffffffffffffffffffffffffffffff1673ffffffffffffffffffffffffffffffffffffffff16815260200190815260200160002081905550816000808573ffffffffffffffffffffffffffffffffffffffff1673ffffffffffffffffffffffffffffffffffffffff1681526020019081526020016000206000828254610c379190611192565b925050819055508273ffffffffffffffffffffffffffffffffffffffff168473ffffffffffffffffffffffffffffffffffffffff167fddf252ad1be2c89b69c2b068fc378daa952ba7f163c4a11628f55a4df523b3ef84604051610c9b9190611140565b60405180910390a3610cae848484610d23565b50505050565b610cbc610406565b81610cc56103c4565b610ccf9190611192565b1115610d10576040517f08c379a0000000000000000000000000000000000000000000000000000000008152600401610d07906110c0565b60405180910390fd5b610d1a8282610674565b5050565b505050565b505050565b600081359050610d3781611566565b92915050565b600081359050610d4c8161157d565b92915050565b600060208284031215610d6457600080fd5b6000610d7284828501610d28565b91505092915050565b60008060408385031215610d8e57600080fd5b6000610d9c85828601610d28565b9250506020610dad85828601610d28565b9150509250929050565b600080600060608486031215610dcc57600080fd5b6000610dda86828701610d28565b9350506020610deb86828701610d28565b9250506040610dfc86828701610d3d565b9150509250925092565b60008060408385031215610e1957600080fd5b6000610e2785828601610d28565b9250506020610e3885828601610d3d565b9150509250929050565b610e4b816111fa565b82525050565b6000610e5c82611176565b610e668185611181565b9350610e7681856020860161123d565b610e7f81611300565b840191505092915050565b6000610e97602383611181565b9150610ea282611311565b604082019050919050565b6000610eba602283611181565b9150610ec582611360565b604082019050919050565b6000610edd601d83611181565b9150610ee8826113af565b602082019050919050565b6000610f00602683611181565b9150610f0b826113d8565b604082019050919050565b6000610f23602583611181565b9150610f2e82611427565b604082019050919050565b6000610f46601983611181565b9150610f5182611476565b602082019050919050565b6000610f69602483611181565b9150610f748261149f565b604082019050919050565b6000610f8c602583611181565b9150610f97826114ee565b604082019050919050565b6000610faf601f83611181565b9150610fba8261153d565b602082019050919050565b610fce81611226565b82525050565b610fdd81611230565b82525050565b6000602082019050610ff86000830184610e42565b92915050565b600060208201905081810360008301526110188184610e51565b905092915050565b6000602082019050818103600083015261103981610e8a565b9050919050565b6000602082019050818103600083015261105981610ead565b9050919050565b6000602082019050818103600083015261107981610ed0565b9050919050565b6000602082019050818103600083015261109981610ef3565b9050919050565b600060208201905081810360008301526110b981610f16565b9050919050565b600060208201905081810360008301526110d981610f39565b9050919050565b600060208201905081810360008301526110f981610f5c565b9050919050565b6000602082019050818103600083015261111981610f7f565b9050919050565b6000602082019050818103600083015261113981610fa2565b9050919050565b60006020820190506111556000830184610fc5565b92915050565b60006020820190506111706000830184610fd4565b92915050565b600081519050919050565b600082825260208201905092915050565b600061119d82611226565b91506111a883611226565b9250827fffffffffffffffffffffffffffffffffffffffffffffffffffffffffffffffff038211156111dd576111dc6112a2565b5b828201905092915050565b60006111f382611206565b9050919050565b60008115159050919050565b600073ffffffffffffffffffffffffffffffffffffffff82169050919050565b6000819050919050565b600060ff82169050919050565b60005b8381101561125b578082015181840152602081019050611240565b8381111561126a576000848401525b50505050565b6000600282049050600182168061128857607f821691505b6020821081141561129c5761129b6112d1565b5b50919050565b7f4e487b7100000000000000000000000000000000000000000000000000000000600052601160045260246000fd5b7f4e487b7100000000000000000000000000000000000000000000000000000000600052602260045260246000fd5b6000601f19601f8301169050919050565b7f45524332303a207472616e7366657220746f20746865207a65726f206164647260008201527f6573730000000000000000000000000000000000000000000000000000000000602082015250565b7f45524332303a20617070726f766520746f20746865207a65726f20616464726560008201527f7373000000000000000000000000000000000000000000000000000000000000602082015250565b7f45524332303a20696e73756666696369656e7420616c6c6f77616e6365000000600082015250565b7f45524332303a207472616e7366657220616d6f756e742065786365656473206260008201527f616c616e63650000000000000000000000000000000000000000000000000000602082015250565b7f45524332303a207472616e736665722066726f6d20746865207a65726f20616460008201527f6472657373000000000000000000000000000000000000000000000000000000602082015250565b7f45524332304361707065643a2063617020657863656564656400000000000000600082015250565b7f45524332303a20617070726f76652066726f6d20746865207a65726f2061646460008201527f7265737300000000000000000000000000000000000000000000000000000000602082015250565b7f45524332303a2064656372656173656420616c6c6f77616e63652062656c6f7760008201527f207a65726f000000000000000000000000000000000000000000000000000000602082015250565b7f45524332303a206d696e7420746f20746865207a65726f206164647265737300600082015250565b61156f816111e8565b811461157a57600080fd5b50565b61158681611226565b811461159157600080fd5b5056fea2646970667358221220df2ed5a0e264477eba2185ed178d30091deb9c6a22235cdbde96dedd2de1f96b64736f6c63430008040033",
  "linkReferences": {},
  "deployedLinkReferences": {}
}