{
  "_format": "hh-sol-artifact-1",
  "contractName": "DevToken",
  "sourceName": "contracts/erc20token.sol",
  "abi": [
    {
      "inputs": [
        {
          "internalType": "uint256",
          "name": "cap",
          "type": "uint256"
        }
      ],
      "stateMutability": "nonpayable",
      "type": "constructor"
    },
    {
      "anonymous": false,
      "inputs": [
        {
          "indexed": true,
          "internalType": "address",
          "name": "owner",
          "type": "address"
        },
        {
          "indexed": true,
          "internalType": "address",
          "name": "spender",
          "type": "address"
        },
        {
          "indexed": false,
          "internalType": "uint256",
          "name": "value",
          "type": "uint256"
        }
      ],
      "name": "Approval",
      "type": "event"
    },
    {
      "anonymous": false,
      "inputs": [
        {
          "indexed": true,
          "internalType": "address",
          "name": "previousOwner",
          "type": "address"
        },
        {
          "indexed": true,
          "internalType": "address",
          "name": "newOwner",
          "type": "address"
        }
      ],
      "name": "OwnershipTransferred",
      "type": "event"
    },
    {
      "anonymous": false,
      "inputs": [
        {
          "indexed": true,
          "internalType": "address",
          "name": "from",
          "type": "address"
        },
        {
          "indexed": true,
          "internalType": "address",
          "name": "to",
          "type": "address"
        },
        {
          "indexed": false,
          "internalType": "uint256",
          "name": "value",
          "type": "uint256"
        }
      ],
      "name": "Transfer",
      "type": "event"
    },
    {
      "anonymous": false,
      "inputs": [
        {
          "indexed": false,
          "internalType": "address",
          "name": "sender",
          "type": "address"
        },
        {
          "indexed": false,
          "internalType": "uint256",
          "name": "amount",
          "type": "uint256"
        }
      ],
      "name": "tokensIssued",
      "type": "event"
    },
    {
      "inputs": [
        {
          "internalType": "address",
          "name": "owner",
          "type": "address"
        },
        {
          "internalType": "address",
          "name": "spender",
          "type": "address"
        }
      ],
      "name": "allowance",
      "outputs": [
        {
          "internalType": "uint256",
          "name": "",
          "type": "uint256"
        }
      ],
      "stateMutability": "view",
      "type": "function"
    },
    {
      "inputs": [
        {
          "internalType": "address",
          "name": "spender",
          "type": "address"
        },
        {
          "internalType": "uint256",
          "name": "amount",
          "type": "uint256"
        }
      ],
      "name": "approve",
      "outputs": [
        {
          "internalType": "bool",
          "name": "",
          "type": "bool"
        }
      ],
      "stateMutability": "nonpayable",
      "type": "function"
    },
    {
      "inputs": [
        {
          "internalType": "address",
          "name": "account",
          "type": "address"
        }
      ],
      "name": "balanceOf",
      "outputs": [
        {
          "internalType": "uint256",
          "name": "",
          "type": "uint256"
        }
      ],
      "stateMutability": "view",
      "type": "function"
    },
    {
      "inputs": [],
      "name": "cap",
      "outputs": [
        {
          "internalType": "uint256",
          "name": "",
          "type": "uint256"
        }
      ],
      "stateMutability": "view",
      "type": "function"
    },
    {
      "inputs": [],
      "name": "decimals",
      "outputs": [
        {
          "internalType": "uint8",
          "name": "",
          "type": "uint8"
        }
      ],
      "stateMutability": "view",
      "type": "function"
    },
    {
      "inputs": [
        {
          "internalType": "address",
          "name": "spender",
          "type": "address"
        },
        {
          "internalType": "uint256",
          "name": "subtractedValue",
          "type": "uint256"
        }
      ],
      "name": "decreaseAllowance",
      "outputs": [
        {
          "internalType": "bool",
          "name": "",
          "type": "bool"
        }
      ],
      "stateMutability": "nonpayable",
      "type": "function"
    },
    {
      "inputs": [],
      "name": "getTotalSupply",
      "outputs": [],
      "stateMutability": "view",
      "type": "function"
    },
    {
      "inputs": [
        {
          "internalType": "address",
          "name": "spender",
          "type": "address"
        },
        {
          "internalType": "uint256",
          "name": "addedValue",
          "type": "uint256"
        }
      ],
      "name": "increaseAllowance",
      "outputs": [
        {
          "internalType": "bool",
          "name": "",
          "type": "bool"
        }
      ],
      "stateMutability": "nonpayable",
      "type": "function"
    },
    {
      "inputs": [],
      "name": "issueTokens",
      "outputs": [],
      "stateMutability": "nonpayable",
      "type": "function"
    },
    {
      "inputs": [],
      "name": "name",
      "outputs": [
        {
          "internalType": "string",
          "name": "",
          "type": "string"
        }
      ],
      "stateMutability": "view",
      "type": "function"
    },
    {
      "inputs": [],
      "name": "owner",
      "outputs": [
        {
          "internalType": "address",
          "name": "",
          "type": "address"
        }
      ],
      "stateMutability": "view",
      "type": "function"
    },
    {
      "inputs": [],
      "name": "renounceOwnership",
      "outputs": [],
      "stateMutability": "nonpayable",
      "type": "function"
    },
    {
      "inputs": [],
      "name": "symbol",
      "outputs": [
        {
          "internalType": "string",
          "name": "",
          "type": "string"
        }
      ],
      "stateMutability": "view",
      "type": "function"
    },
    {
      "inputs": [],
      "name": "totalSupply",
      "outputs": [
        {
          "internalType": "uint256",
          "name": "",
          "type": "uint256"
        }
      ],
      "stateMutability": "view",
      "type": "function"
    },
    {
      "inputs": [
        {
          "internalType": "address",
          "name": "to",
          "type": "address"
        },
        {
          "internalType": "uint256",
          "name": "amount",
          "type": "uint256"
        }
      ],
      "name": "transfer",
      "outputs": [
        {
          "internalType": "bool",
          "name": "",
          "type": "bool"
        }
      ],
      "stateMutability": "nonpayable",
      "type": "function"
    },
    {
      "inputs": [
        {
          "internalType": "address",
          "name": "from",
          "type": "address"
        },
        {
          "internalType": "address",
          "name": "to",
          "type": "address"
        },
        {
          "internalType": "uint256",
          "name": "amount",
          "type": "uint256"
        }
      ],
      "name": "transferFrom",
      "outputs": [
        {
          "internalType": "bool",
          "name": "",
          "type": "bool"
        }
      ],
      "stateMutability": "nonpayable",
      "type": "function"
    },
    {
      "inputs": [
        {
          "internalType": "address",
          "name": "newOwner",
          "type": "address"
        }
      ],
      "name": "transferOwnership",
      "outputs": [],
      "stateMutability": "nonpayable",
      "type": "function"
    }
  ],
  "bytecode": "0x60a06040523480156200001157600080fd5b50604051620020d3380380620020d38339818101604052810190620000379190620002e3565b806040518060400160405280600481526020017f4a4f484e000000000000000000000000000000000000000000000000000000008152506040518060400160405280600281526020017f4a500000000000000000000000000000000000000000000000000000000000008152508160039080519060200190620000bc9291906200021c565b508060049080519060200190620000d59291906200021c565b505050600081116200011e576040517f08c379a0000000000000000000000000000000000000000000000000000000008152600401620001159062000336565b60405180910390fd5b806080818152505050620001476200013b6200014e60201b60201c565b6200015660201b60201c565b506200041b565b600033905090565b6000600560009054906101000a900473ffffffffffffffffffffffffffffffffffffffff16905081600560006101000a81548173ffffffffffffffffffffffffffffffffffffffff021916908373ffffffffffffffffffffffffffffffffffffffff1602179055508173ffffffffffffffffffffffffffffffffffffffff168173ffffffffffffffffffffffffffffffffffffffff167f8be0079c531659141344cd1fd0a4f28419497f9722a3daafe3b4186f6b6457e060405160405180910390a35050565b8280546200022a9062000373565b90600052602060002090601f0160209004810192826200024e57600085556200029a565b82601f106200026957805160ff19168380011785556200029a565b828001600101855582156200029a579182015b82811115620002995782518255916020019190600101906200027c565b5b509050620002a99190620002ad565b5090565b5b80821115620002c8576000816000905550600101620002ae565b5090565b600081519050620002dd8162000401565b92915050565b600060208284031215620002f657600080fd5b60006200030684828501620002cc565b91505092915050565b60006200031e60158362000358565b91506200032b82620003d8565b602082019050919050565b6000602082019050818103600083015262000351816200030f565b9050919050565b600082825260208201905092915050565b6000819050919050565b600060028204905060018216806200038c57607f821691505b60208210811415620003a357620003a2620003a9565b5b50919050565b7f4e487b7100000000000000000000000000000000000000000000000000000000600052602260045260246000fd5b7f45524332304361707065643a2063617020697320300000000000000000000000600082015250565b6200040c8162000369565b81146200041857600080fd5b50565b608051611c9c6200043760003960006104490152611c9c6000f3fe608060405234801561001057600080fd5b506004361061010b5760003560e01c806370a08231116100a2578063a457c2d711610071578063a457c2d714610298578063a9059cbb146102c8578063c4e41b22146102f8578063dd62ed3e14610302578063f2fde38b146103325761010b565b806370a0823114610222578063715018a6146102525780638da5cb5b1461025c57806395d89b411461027a5761010b565b8063313ce567116100de578063313ce567146101ac578063355274ea146101ca57806339509351146101e857806360ab5852146102185761010b565b806306fdde0314610110578063095ea7b31461012e57806318160ddd1461015e57806323b872dd1461017c575b600080fd5b61011861034e565b6040516101259190611440565b60405180910390f35b610148600480360381019061014391906111af565b6103e0565b6040516101559190611425565b60405180910390f35b610166610403565b60405161017391906115c2565b60405180910390f35b61019660048036038101906101919190611160565b61040d565b6040516101a39190611425565b60405180910390f35b6101b461043c565b6040516101c191906115dd565b60405180910390f35b6101d2610445565b6040516101df91906115c2565b60405180910390f35b61020260048036038101906101fd91906111af565b61046d565b60405161020f9190611425565b60405180910390f35b6102206104a4565b005b61023c600480360381019061023791906110fb565b6105a7565b60405161024991906115c2565b60405180910390f35b61025a6105ef565b005b610264610677565b60405161027191906113e1565b60405180910390f35b6102826106a1565b60405161028f9190611440565b60405180910390f35b6102b260048036038101906102ad91906111af565b610733565b6040516102bf9190611425565b60405180910390f35b6102e260048036038101906102dd91906111af565b6107aa565b6040516102ef9190611425565b60405180910390f35b6103006107cd565b005b61031c60048036038101906103179190611124565b6107d8565b60405161032991906115c2565b60405180910390f35b61034c600480360381019061034791906110fb565b61085f565b005b60606003805461035d906118bd565b80601f0160208091040260200160405190810160405280929190818152602001828054610389906118bd565b80156103d65780601f106103ab576101008083540402835291602001916103d6565b820191906000526020600020905b8154815290600101906020018083116103b957829003601f168201915b5050505050905090565b6000806103eb610957565b90506103f881858561095f565b600191505092915050565b6000600254905090565b600080610418610957565b9050610425858285610b2a565b610430858585610bb6565b60019150509392505050565b60006012905090565b60007f0000000000000000000000000000000000000000000000000000000000000000905090565b600080610478610957565b905061049981858561048a85896107d8565b6104949190611614565b61095f565b600191505092915050565b6104ac610957565b73ffffffffffffffffffffffffffffffffffffffff166104ca610677565b73ffffffffffffffffffffffffffffffffffffffff1614610520576040517f08c379a000000000000000000000000000000000000000000000000000000000815260040161051790611502565b60405180910390fd5b61054b3361052c61043c565b600a61053891906116bd565b620186a061054691906117db565b610e37565b7f6a7cf782c6e7fcd0bb27ce317df53734a9f7f6e520c58b0f44390562c818de1c3361057561043c565b600a61058191906116bd565b620186a061058f91906117db565b60405161059d9291906113fc565b60405180910390a1565b60008060008373ffffffffffffffffffffffffffffffffffffffff1673ffffffffffffffffffffffffffffffffffffffff168152602001908152602001600020549050919050565b6105f7610957565b73ffffffffffffffffffffffffffffffffffffffff16610615610677565b73ffffffffffffffffffffffffffffffffffffffff161461066b576040517f08c379a000000000000000000000000000000000000000000000000000000000815260040161066290611502565b60405180910390fd5b6106756000610ea1565b565b6000600560009054906101000a900473ffffffffffffffffffffffffffffffffffffffff16905090565b6060600480546106b0906118bd565b80601f01602080910402602001604051908101604052809291908181526020018280546106dc906118bd565b80156107295780601f106106fe57610100808354040283529160200191610729565b820191906000526020600020905b81548152906001019060200180831161070c57829003601f168201915b5050505050905090565b60008061073e610957565b9050600061074c82866107d8565b905083811015610791576040517f08c379a000000000000000000000000000000000000000000000000000000000815260040161078890611582565b60405180910390fd5b61079e828686840361095f565b60019250505092915050565b6000806107b5610957565b90506107c2818585610bb6565b600191505092915050565b6107d5610445565b50565b6000600160008473ffffffffffffffffffffffffffffffffffffffff1673ffffffffffffffffffffffffffffffffffffffff16815260200190815260200160002060008373ffffffffffffffffffffffffffffffffffffffff1673ffffffffffffffffffffffffffffffffffffffff16815260200190815260200160002054905092915050565b610867610957565b73ffffffffffffffffffffffffffffffffffffffff16610885610677565b73ffffffffffffffffffffffffffffffffffffffff16146108db576040517f08c379a00000000000000000000000000000000000000000000000000000000081526004016108d290611502565b60405180910390fd5b600073ffffffffffffffffffffffffffffffffffffffff168173ffffffffffffffffffffffffffffffffffffffff16141561094b576040517f08c379a000000000000000000000000000000000000000000000000000000000815260040161094290611482565b60405180910390fd5b61095481610ea1565b50565b600033905090565b600073ffffffffffffffffffffffffffffffffffffffff168373ffffffffffffffffffffffffffffffffffffffff1614156109cf576040517f08c379a00000000000000000000000000000000000000000000000000000000081526004016109c690611562565b60405180910390fd5b600073ffffffffffffffffffffffffffffffffffffffff168273ffffffffffffffffffffffffffffffffffffffff161415610a3f576040517f08c379a0000000000000000000000000000000000000000000000000000000008152600401610a36906114a2565b60405180910390fd5b80600160008573ffffffffffffffffffffffffffffffffffffffff1673ffffffffffffffffffffffffffffffffffffffff16815260200190815260200160002060008473ffffffffffffffffffffffffffffffffffffffff1673ffffffffffffffffffffffffffffffffffffffff168152602001908152602001600020819055508173ffffffffffffffffffffffffffffffffffffffff168373ffffffffffffffffffffffffffffffffffffffff167f8c5be1e5ebec7d5bd14f71427d1e84f3dd0314c0f7b2291e5b200ac8c7c3b92583604051610b1d91906115c2565b60405180910390a3505050565b6000610b3684846107d8565b90507fffffffffffffffffffffffffffffffffffffffffffffffffffffffffffffffff8114610bb05781811015610ba2576040517f08c379a0000000000000000000000000000000000000000000000000000000008152600401610b99906114c2565b60405180910390fd5b610baf848484840361095f565b5b50505050565b600073ffffffffffffffffffffffffffffffffffffffff168373ffffffffffffffffffffffffffffffffffffffff161415610c26576040517f08c379a0000000000000000000000000000000000000000000000000000000008152600401610c1d90611522565b60405180910390fd5b600073ffffffffffffffffffffffffffffffffffffffff168273ffffffffffffffffffffffffffffffffffffffff161415610c96576040517f08c379a0000000000000000000000000000000000000000000000000000000008152600401610c8d90611462565b60405180910390fd5b610ca1838383610f67565b60008060008573ffffffffffffffffffffffffffffffffffffffff1673ffffffffffffffffffffffffffffffffffffffff16815260200190815260200160002054905081811015610d27576040517f08c379a0000000000000000000000000000000000000000000000000000000008152600401610d1e906114e2565b60405180910390fd5b8181036000808673ffffffffffffffffffffffffffffffffffffffff1673ffffffffffffffffffffffffffffffffffffffff16815260200190815260200160002081905550816000808573ffffffffffffffffffffffffffffffffffffffff1673ffffffffffffffffffffffffffffffffffffffff1681526020019081526020016000206000828254610dba9190611614565b925050819055508273ffffffffffffffffffffffffffffffffffffffff168473ffffffffffffffffffffffffffffffffffffffff167fddf252ad1be2c89b69c2b068fc378daa952ba7f163c4a11628f55a4df523b3ef84604051610e1e91906115c2565b60405180910390a3610e31848484610f6c565b50505050565b610e3f610445565b81610e48610403565b610e529190611614565b1115610e93576040517f08c379a0000000000000000000000000000000000000000000000000000000008152600401610e8a90611542565b60405180910390fd5b610e9d8282610f71565b5050565b6000600560009054906101000a900473ffffffffffffffffffffffffffffffffffffffff16905081600560006101000a81548173ffffffffffffffffffffffffffffffffffffffff021916908373ffffffffffffffffffffffffffffffffffffffff1602179055508173ffffffffffffffffffffffffffffffffffffffff168173ffffffffffffffffffffffffffffffffffffffff167f8be0079c531659141344cd1fd0a4f28419497f9722a3daafe3b4186f6b6457e060405160405180910390a35050565b505050565b505050565b600073ffffffffffffffffffffffffffffffffffffffff168273ffffffffffffffffffffffffffffffffffffffff161415610fe1576040517f08c379a0000000000000000000000000000000000000000000000000000000008152600401610fd8906115a2565b60405180910390fd5b610fed60008383610f67565b8060026000828254610fff9190611614565b92505081905550806000808473ffffffffffffffffffffffffffffffffffffffff1673ffffffffffffffffffffffffffffffffffffffff16815260200190815260200160002060008282546110549190611614565b925050819055508173ffffffffffffffffffffffffffffffffffffffff16600073ffffffffffffffffffffffffffffffffffffffff167fddf252ad1be2c89b69c2b068fc378daa952ba7f163c4a11628f55a4df523b3ef836040516110b991906115c2565b60405180910390a36110cd60008383610f6c565b5050565b6000813590506110e081611c38565b92915050565b6000813590506110f581611c4f565b92915050565b60006020828403121561110d57600080fd5b600061111b848285016110d1565b91505092915050565b6000806040838503121561113757600080fd5b6000611145858286016110d1565b9250506020611156858286016110d1565b9150509250929050565b60008060006060848603121561117557600080fd5b6000611183868287016110d1565b9350506020611194868287016110d1565b92505060406111a5868287016110e6565b9150509250925092565b600080604083850312156111c257600080fd5b60006111d0858286016110d1565b92505060206111e1858286016110e6565b9150509250929050565b6111f481611835565b82525050565b61120381611847565b82525050565b6000611214826115f8565b61121e8185611603565b935061122e81856020860161188a565b6112378161194d565b840191505092915050565b600061124f602383611603565b915061125a8261196b565b604082019050919050565b6000611272602683611603565b915061127d826119ba565b604082019050919050565b6000611295602283611603565b91506112a082611a09565b604082019050919050565b60006112b8601d83611603565b91506112c382611a58565b602082019050919050565b60006112db602683611603565b91506112e682611a81565b604082019050919050565b60006112fe602083611603565b915061130982611ad0565b602082019050919050565b6000611321602583611603565b915061132c82611af9565b604082019050919050565b6000611344601983611603565b915061134f82611b48565b602082019050919050565b6000611367602483611603565b915061137282611b71565b604082019050919050565b600061138a602583611603565b915061139582611bc0565b604082019050919050565b60006113ad601f83611603565b91506113b882611c0f565b602082019050919050565b6113cc81611873565b82525050565b6113db8161187d565b82525050565b60006020820190506113f660008301846111eb565b92915050565b600060408201905061141160008301856111eb565b61141e60208301846113c3565b9392505050565b600060208201905061143a60008301846111fa565b92915050565b6000602082019050818103600083015261145a8184611209565b905092915050565b6000602082019050818103600083015261147b81611242565b9050919050565b6000602082019050818103600083015261149b81611265565b9050919050565b600060208201905081810360008301526114bb81611288565b9050919050565b600060208201905081810360008301526114db816112ab565b9050919050565b600060208201905081810360008301526114fb816112ce565b9050919050565b6000602082019050818103600083015261151b816112f1565b9050919050565b6000602082019050818103600083015261153b81611314565b9050919050565b6000602082019050818103600083015261155b81611337565b9050919050565b6000602082019050818103600083015261157b8161135a565b9050919050565b6000602082019050818103600083015261159b8161137d565b9050919050565b600060208201905081810360008301526115bb816113a0565b9050919050565b60006020820190506115d760008301846113c3565b92915050565b60006020820190506115f260008301846113d2565b92915050565b600081519050919050565b600082825260208201905092915050565b600061161f82611873565b915061162a83611873565b9250827fffffffffffffffffffffffffffffffffffffffffffffffffffffffffffffffff0382111561165f5761165e6118ef565b5b828201905092915050565b6000808291508390505b60018511156116b4578086048111156116905761168f6118ef565b5b600185161561169f5780820291505b80810290506116ad8561195e565b9450611674565b94509492505050565b60006116c882611873565b91506116d38361187d565b92506117007fffffffffffffffffffffffffffffffffffffffffffffffffffffffffffffffff8484611708565b905092915050565b60008261171857600190506117d4565b8161172657600090506117d4565b816001811461173c576002811461174657611775565b60019150506117d4565b60ff841115611758576117576118ef565b5b8360020a91508482111561176f5761176e6118ef565b5b506117d4565b5060208310610133831016604e8410600b84101617156117aa5782820a9050838111156117a5576117a46118ef565b5b6117d4565b6117b7848484600161166a565b925090508184048111156117ce576117cd6118ef565b5b81810290505b9392505050565b60006117e682611873565b91506117f183611873565b9250817fffffffffffffffffffffffffffffffffffffffffffffffffffffffffffffffff048311821515161561182a576118296118ef565b5b828202905092915050565b600061184082611853565b9050919050565b60008115159050919050565b600073ffffffffffffffffffffffffffffffffffffffff82169050919050565b6000819050919050565b600060ff82169050919050565b60005b838110156118a857808201518184015260208101905061188d565b838111156118b7576000848401525b50505050565b600060028204905060018216806118d557607f821691505b602082108114156118e9576118e861191e565b5b50919050565b7f4e487b7100000000000000000000000000000000000000000000000000000000600052601160045260246000fd5b7f4e487b7100000000000000000000000000000000000000000000000000000000600052602260045260246000fd5b6000601f19601f8301169050919050565b60008160011c9050919050565b7f45524332303a207472616e7366657220746f20746865207a65726f206164647260008201527f6573730000000000000000000000000000000000000000000000000000000000602082015250565b7f4f776e61626c653a206e6577206f776e657220697320746865207a65726f206160008201527f6464726573730000000000000000000000000000000000000000000000000000602082015250565b7f45524332303a20617070726f766520746f20746865207a65726f20616464726560008201527f7373000000000000000000000000000000000000000000000000000000000000602082015250565b7f45524332303a20696e73756666696369656e7420616c6c6f77616e6365000000600082015250565b7f45524332303a207472616e7366657220616d6f756e742065786365656473206260008201527f616c616e63650000000000000000000000000000000000000000000000000000602082015250565b7f4f776e61626c653a2063616c6c6572206973206e6f7420746865206f776e6572600082015250565b7f45524332303a207472616e736665722066726f6d20746865207a65726f20616460008201527f6472657373000000000000000000000000000000000000000000000000000000602082015250565b7f45524332304361707065643a2063617020657863656564656400000000000000600082015250565b7f45524332303a20617070726f76652066726f6d20746865207a65726f2061646460008201527f7265737300000000000000000000000000000000000000000000000000000000602082015250565b7f45524332303a2064656372656173656420616c6c6f77616e63652062656c6f7760008201527f207a65726f000000000000000000000000000000000000000000000000000000602082015250565b7f45524332303a206d696e7420746f20746865207a65726f206164647265737300600082015250565b611c4181611835565b8114611c4c57600080fd5b50565b611c5881611873565b8114611c6357600080fd5b5056fea26469706673582212203e74b92c13fc3137cb6b30b1d87884be939a3ba507bce7e169ce2b276e851f1a64736f6c63430008040033",
  "linkReferences": {},
  "deployedLinkReferences": {}
}