{
  "_format": "hh-sol-artifact-1",
  "contractName": "Tokenizer",
  "sourceName": "contracts/erc721token.sol",
  "abi": [
    {
      "inputs": [],
      "stateMutability": "nonpayable",
      "type": "constructor"
    },
    {
      "anonymous": false,
      "inputs": [
        {
          "indexed": true,
          "internalType": "address",
          "name": "owner",
          "type": "address"
        },
        {
          "indexed": true,
          "internalType": "address",
          "name": "approved",
          "type": "address"
        },
        {
          "indexed": true,
          "internalType": "uint256",
          "name": "tokenId",
          "type": "uint256"
        }
      ],
      "name": "Approval",
      "type": "event"
    },
    {
      "anonymous": false,
      "inputs": [
        {
          "indexed": true,
          "internalType": "address",
          "name": "owner",
          "type": "address"
        },
        {
          "indexed": true,
          "internalType": "address",
          "name": "operator",
          "type": "address"
        },
        {
          "indexed": false,
          "internalType": "bool",
          "name": "approved",
          "type": "bool"
        }
      ],
      "name": "ApprovalForAll",
      "type": "event"
    },
    {
      "anonymous": false,
      "inputs": [
        {
          "indexed": true,
          "internalType": "address",
          "name": "previousOwner",
          "type": "address"
        },
        {
          "indexed": true,
          "internalType": "address",
          "name": "newOwner",
          "type": "address"
        }
      ],
      "name": "OwnershipTransferred",
      "type": "event"
    },
    {
      "anonymous": false,
      "inputs": [
        {
          "indexed": false,
          "internalType": "address",
          "name": "account",
          "type": "address"
        }
      ],
      "name": "Paused",
      "type": "event"
    },
    {
      "anonymous": false,
      "inputs": [
        {
          "indexed": true,
          "internalType": "address",
          "name": "from",
          "type": "address"
        },
        {
          "indexed": true,
          "internalType": "address",
          "name": "to",
          "type": "address"
        },
        {
          "indexed": true,
          "internalType": "uint256",
          "name": "tokenId",
          "type": "uint256"
        }
      ],
      "name": "Transfer",
      "type": "event"
    },
    {
      "anonymous": false,
      "inputs": [
        {
          "indexed": false,
          "internalType": "address",
          "name": "account",
          "type": "address"
        }
      ],
      "name": "Unpaused",
      "type": "event"
    },
    {
      "anonymous": false,
      "inputs": [
        {
          "indexed": false,
          "internalType": "address",
          "name": "sender",
          "type": "address"
        },
        {
          "indexed": false,
          "internalType": "uint256",
          "name": "tokenId",
          "type": "uint256"
        }
      ],
      "name": "newTokenMinted",
      "type": "event"
    },
    {
      "anonymous": false,
      "inputs": [
        {
          "indexed": false,
          "internalType": "address",
          "name": "sender",
          "type": "address"
        },
        {
          "indexed": false,
          "internalType": "uint256",
          "name": "tokenId",
          "type": "uint256"
        }
      ],
      "name": "tokenBurnt",
      "type": "event"
    },
    {
      "inputs": [
        {
          "internalType": "address",
          "name": "to",
          "type": "address"
        },
        {
          "internalType": "uint256",
          "name": "tokenId",
          "type": "uint256"
        }
      ],
      "name": "approve",
      "outputs": [],
      "stateMutability": "nonpayable",
      "type": "function"
    },
    {
      "inputs": [
        {
          "internalType": "address",
          "name": "owner",
          "type": "address"
        }
      ],
      "name": "balanceOf",
      "outputs": [
        {
          "internalType": "uint256",
          "name": "",
          "type": "uint256"
        }
      ],
      "stateMutability": "view",
      "type": "function"
    },
    {
      "inputs": [
        {
          "internalType": "uint256",
          "name": "tokenId",
          "type": "uint256"
        }
      ],
      "name": "burn",
      "outputs": [],
      "stateMutability": "nonpayable",
      "type": "function"
    },
    {
      "inputs": [],
      "name": "collectionName",
      "outputs": [
        {
          "internalType": "string",
          "name": "",
          "type": "string"
        }
      ],
      "stateMutability": "view",
      "type": "function"
    },
    {
      "inputs": [],
      "name": "collectionSymbol",
      "outputs": [
        {
          "internalType": "string",
          "name": "",
          "type": "string"
        }
      ],
      "stateMutability": "view",
      "type": "function"
    },
    {
      "inputs": [
        {
          "internalType": "uint256",
          "name": "tokenId",
          "type": "uint256"
        }
      ],
      "name": "getApproved",
      "outputs": [
        {
          "internalType": "address",
          "name": "",
          "type": "address"
        }
      ],
      "stateMutability": "view",
      "type": "function"
    },
    {
      "inputs": [],
      "name": "getTotalMinted",
      "outputs": [
        {
          "internalType": "uint256",
          "name": "",
          "type": "uint256"
        }
      ],
      "stateMutability": "view",
      "type": "function"
    },
    {
      "inputs": [
        {
          "internalType": "address",
          "name": "owner",
          "type": "address"
        },
        {
          "internalType": "address",
          "name": "operator",
          "type": "address"
        }
      ],
      "name": "isApprovedForAll",
      "outputs": [
        {
          "internalType": "bool",
          "name": "",
          "type": "bool"
        }
      ],
      "stateMutability": "view",
      "type": "function"
    },
    {
      "inputs": [],
      "name": "mintToken",
      "outputs": [],
      "stateMutability": "nonpayable",
      "type": "function"
    },
    {
      "inputs": [],
      "name": "name",
      "outputs": [
        {
          "internalType": "string",
          "name": "",
          "type": "string"
        }
      ],
      "stateMutability": "view",
      "type": "function"
    },
    {
      "inputs": [],
      "name": "owner",
      "outputs": [
        {
          "internalType": "address",
          "name": "",
          "type": "address"
        }
      ],
      "stateMutability": "view",
      "type": "function"
    },
    {
      "inputs": [
        {
          "internalType": "uint256",
          "name": "tokenId",
          "type": "uint256"
        }
      ],
      "name": "ownerOf",
      "outputs": [
        {
          "internalType": "address",
          "name": "",
          "type": "address"
        }
      ],
      "stateMutability": "view",
      "type": "function"
    },
    {
      "inputs": [],
      "name": "pause",
      "outputs": [],
      "stateMutability": "nonpayable",
      "type": "function"
    },
    {
      "inputs": [],
      "name": "paused",
      "outputs": [
        {
          "internalType": "bool",
          "name": "",
          "type": "bool"
        }
      ],
      "stateMutability": "view",
      "type": "function"
    },
    {
      "inputs": [],
      "name": "renounceOwnership",
      "outputs": [],
      "stateMutability": "nonpayable",
      "type": "function"
    },
    {
      "inputs": [
        {
          "internalType": "address",
          "name": "from",
          "type": "address"
        },
        {
          "internalType": "address",
          "name": "to",
          "type": "address"
        },
        {
          "internalType": "uint256",
          "name": "tokenId",
          "type": "uint256"
        }
      ],
      "name": "safeTransferFrom",
      "outputs": [],
      "stateMutability": "nonpayable",
      "type": "function"
    },
    {
      "inputs": [
        {
          "internalType": "address",
          "name": "from",
          "type": "address"
        },
        {
          "internalType": "address",
          "name": "to",
          "type": "address"
        },
        {
          "internalType": "uint256",
          "name": "tokenId",
          "type": "uint256"
        },
        {
          "internalType": "bytes",
          "name": "_data",
          "type": "bytes"
        }
      ],
      "name": "safeTransferFrom",
      "outputs": [],
      "stateMutability": "nonpayable",
      "type": "function"
    },
    {
      "inputs": [
        {
          "internalType": "address",
          "name": "operator",
          "type": "address"
        },
        {
          "internalType": "bool",
          "name": "approved",
          "type": "bool"
        }
      ],
      "name": "setApprovalForAll",
      "outputs": [],
      "stateMutability": "nonpayable",
      "type": "function"
    },
    {
      "inputs": [
        {
          "internalType": "bytes4",
          "name": "interfaceId",
          "type": "bytes4"
        }
      ],
      "name": "supportsInterface",
      "outputs": [
        {
          "internalType": "bool",
          "name": "",
          "type": "bool"
        }
      ],
      "stateMutability": "view",
      "type": "function"
    },
    {
      "inputs": [],
      "name": "symbol",
      "outputs": [
        {
          "internalType": "string",
          "name": "",
          "type": "string"
        }
      ],
      "stateMutability": "view",
      "type": "function"
    },
    {
      "inputs": [
        {
          "internalType": "uint256",
          "name": "tokenId",
          "type": "uint256"
        }
      ],
      "name": "tokenURI",
      "outputs": [
        {
          "internalType": "string",
          "name": "",
          "type": "string"
        }
      ],
      "stateMutability": "view",
      "type": "function"
    },
    {
      "inputs": [
        {
          "internalType": "address",
          "name": "from",
          "type": "address"
        },
        {
          "internalType": "address",
          "name": "to",
          "type": "address"
        },
        {
          "internalType": "uint256",
          "name": "tokenId",
          "type": "uint256"
        }
      ],
      "name": "transferFrom",
      "outputs": [],
      "stateMutability": "nonpayable",
      "type": "function"
    },
    {
      "inputs": [
        {
          "internalType": "address",
          "name": "newOwner",
          "type": "address"
        }
      ],
      "name": "transferOwnership",
      "outputs": [],
      "stateMutability": "nonpayable",
      "type": "function"
    },
    {
      "inputs": [],
      "name": "unpause",
      "outputs": [],
      "stateMutability": "nonpayable",
      "type": "function"
    }
  ],
  "bytecode": "0x60806040523480156200001157600080fd5b506040518060400160405280600481526020017f4a4f484e000000000000000000000000000000000000000000000000000000008152506040518060400160405280600381526020017f4a504300000000000000000000000000000000000000000000000000000000008152508160009080519060200190620000969291906200045c565b508060019080519060200190620000af9291906200045c565b5050506000600660006101000a81548160ff021916908315150217905550620000ed620000e16200018e60201b60201c565b6200019660201b60201c565b620000fd6200025c60201b60201c565b600a9080519060200190620001149291906200045c565b5062000125620002f660201b60201c565b600b90805190602001906200013c9291906200045c565b50620001886040518060400160405280600c81526020017f546f6b656e206f6e6c696e6500000000000000000000000000000000000000008152506200039060201b6200104e1760201c565b62000639565b600033905090565b6000600660019054906101000a900473ffffffffffffffffffffffffffffffffffffffff16905081600660016101000a81548173ffffffffffffffffffffffffffffffffffffffff021916908373ffffffffffffffffffffffffffffffffffffffff1602179055508173ffffffffffffffffffffffffffffffffffffffff168173ffffffffffffffffffffffffffffffffffffffff167f8be0079c531659141344cd1fd0a4f28419497f9722a3daafe3b4186f6b6457e060405160405180910390a35050565b6060600080546200026d90620005c3565b80601f01602080910402602001604051908101604052809291908181526020018280546200029b90620005c3565b8015620002ec5780601f10620002c057610100808354040283529160200191620002ec565b820191906000526020600020905b815481529060010190602001808311620002ce57829003601f168201915b5050505050905090565b6060600180546200030790620005c3565b80601f01602080910402602001604051908101604052809291908181526020018280546200033590620005c3565b8015620003865780601f106200035a5761010080835404028352916020019162000386565b820191906000526020600020905b8154815290600101906020018083116200036857829003601f168201915b5050505050905090565b6200043081604051602401620003a791906200054d565b6040516020818303038152906040527f41304fac000000000000000000000000000000000000000000000000000000007bffffffffffffffffffffffffffffffffffffffffffffffffffffffff19166020820180517bffffffffffffffffffffffffffffffffffffffffffffffffffffffff83818316178352505050506200043360201b60201c565b50565b60008151905060006a636f6e736f6c652e6c6f679050602083016000808483855afa5050505050565b8280546200046a90620005c3565b90600052602060002090601f0160209004810192826200048e5760008555620004da565b82601f10620004a957805160ff1916838001178555620004da565b82800160010185558215620004da579182015b82811115620004d9578251825591602001919060010190620004bc565b5b509050620004e99190620004ed565b5090565b5b8082111562000508576000816000905550600101620004ee565b5090565b6000620005198262000571565b6200052581856200057c565b9350620005378185602086016200058d565b620005428162000628565b840191505092915050565b600060208201905081810360008301526200056981846200050c565b905092915050565b600081519050919050565b600082825260208201905092915050565b60005b83811015620005ad57808201518184015260208101905062000590565b83811115620005bd576000848401525b50505050565b60006002820490506001821680620005dc57607f821691505b60208210811415620005f357620005f2620005f9565b5b50919050565b7f4e487b7100000000000000000000000000000000000000000000000000000000600052602260045260246000fd5b6000601f19601f8301169050919050565b613b1780620006496000396000f3fe608060405234801561001057600080fd5b50600436106101585760003560e01c80636352211e116100c3578063a22cb4651161007c578063a22cb46514610369578063b88d4fde14610385578063c87b56dd146103a1578063e5326ab1146103d1578063e985e9c5146103ef578063f2fde38b1461041f57610158565b80636352211e146102b957806370a08231146102e9578063715018a6146103195780638456cb59146103235780638da5cb5b1461032d57806395d89b411461034b57610158565b806323b872dd1161011557806323b872dd1461021f5780632f39352a1461023b5780633f4ba83a1461025957806342842e0e1461026357806342966c681461027f5780635c975abb1461029b57610158565b806301ffc9a71461015d57806306fdde031461018d578063081812fc146101ab578063095ea7b3146101db5780630ca1c5c9146101f75780632004ffd914610215575b600080fd5b610177600480360381019061017291906128cf565b61043b565b6040516101849190612dad565b60405180910390f35b61019561051d565b6040516101a29190612dc8565b60405180910390f35b6101c560048036038101906101c09190612921565b6105af565b6040516101d29190612d1d565b60405180910390f35b6101f560048036038101906101f09190612893565b610634565b005b6101ff61074c565b60405161020c91906130f8565b60405180910390f35b61021d610797565b005b6102396004803603810190610234919061278d565b61086f565b005b6102436108cf565b6040516102509190612dc8565b60405180910390f35b61026161095d565b005b61027d6004803603810190610278919061278d565b6109e3565b005b61029960048036038101906102949190612921565b610a03565b005b6102a3610a5f565b6040516102b09190612dad565b60405180910390f35b6102d360048036038101906102ce9190612921565b610a76565b6040516102e09190612d1d565b60405180910390f35b61030360048036038101906102fe9190612728565b610b28565b60405161031091906130f8565b60405180910390f35b610321610be0565b005b61032b610c68565b005b610335610cee565b6040516103429190612d1d565b60405180910390f35b610353610d18565b6040516103609190612dc8565b60405180910390f35b610383600480360381019061037e9190612857565b610daa565b005b61039f600480360381019061039a91906127dc565b610dc0565b005b6103bb60048036038101906103b69190612921565b610e22565b6040516103c89190612dc8565b60405180910390f35b6103d9610e34565b6040516103e69190612dc8565b60405180910390f35b61040960048036038101906104049190612751565b610ec2565b6040516104169190612dad565b60405180910390f35b61043960048036038101906104349190612728565b610f56565b005b60007f80ac58cd000000000000000000000000000000000000000000000000000000007bffffffffffffffffffffffffffffffffffffffffffffffffffffffff1916827bffffffffffffffffffffffffffffffffffffffffffffffffffffffff1916148061050657507f5b5e139f000000000000000000000000000000000000000000000000000000007bffffffffffffffffffffffffffffffffffffffffffffffffffffffff1916827bffffffffffffffffffffffffffffffffffffffffffffffffffffffff1916145b806105165750610515826110e7565b5b9050919050565b60606000805461052c9061331d565b80601f01602080910402602001604051908101604052809291908181526020018280546105589061331d565b80156105a55780601f1061057a576101008083540402835291602001916105a5565b820191906000526020600020905b81548152906001019060200180831161058857829003601f168201915b5050505050905090565b60006105ba82611151565b6105f9576040517f08c379a00000000000000000000000000000000000000000000000000000000081526004016105f090613038565b60405180910390fd5b6004600083815260200190815260200160002060009054906101000a900473ffffffffffffffffffffffffffffffffffffffff169050919050565b600061063f82610a76565b90508073ffffffffffffffffffffffffffffffffffffffff168373ffffffffffffffffffffffffffffffffffffffff1614156106b0576040517f08c379a00000000000000000000000000000000000000000000000000000000081526004016106a790613098565b60405180910390fd5b8073ffffffffffffffffffffffffffffffffffffffff166106cf6111bd565b73ffffffffffffffffffffffffffffffffffffffff1614806106fe57506106fd816106f86111bd565b610ec2565b5b61073d576040517f08c379a000000000000000000000000000000000000000000000000000000000815260040161073490612f78565b60405180910390fd5b61074783836111c5565b505050565b600061078f6040518060400160405280601981526020017f5468657365206d616e792025642077657265206d696e7465640000000000000081525060095461127e565b600954905090565b60006107a3600861131a565b90506107af3382611328565b6107ee816040518060400160405280601d81526020017f68747470733a2f2f6a736f6e6b65657065722e636f6d2f622f544d3057000000815250611346565b6009600081548092919061080190613380565b919050555061081060086113ba565b610833604051806060016040528060278152602001613abb6027913982336113d0565b7fdee6961c63e1e04aaaf4f5d72d14927b189488763179688429797ee6a104cf383382604051610864929190612d84565b60405180910390a150565b61088061087a6111bd565b8261146f565b6108bf576040517f08c379a00000000000000000000000000000000000000000000000000000000081526004016108b6906130b8565b60405180910390fd5b6108ca83838361154d565b505050565b600b80546108dc9061331d565b80601f01602080910402602001604051908101604052809291908181526020018280546109089061331d565b80156109555780601f1061092a57610100808354040283529160200191610955565b820191906000526020600020905b81548152906001019060200180831161093857829003601f168201915b505050505081565b6109656111bd565b73ffffffffffffffffffffffffffffffffffffffff16610983610cee565b73ffffffffffffffffffffffffffffffffffffffff16146109d9576040517f08c379a00000000000000000000000000000000000000000000000000000000081526004016109d090613058565b60405180910390fd5b6109e16117b4565b565b6109fe83838360405180602001604052806000815250610dc0565b505050565b610a14610a0e6111bd565b8261146f565b610a53576040517f08c379a0000000000000000000000000000000000000000000000000000000008152600401610a4a906130d8565b60405180910390fd5b610a5c81611856565b50565b6000600660009054906101000a900460ff16905090565b6000806002600084815260200190815260200160002060009054906101000a900473ffffffffffffffffffffffffffffffffffffffff169050600073ffffffffffffffffffffffffffffffffffffffff168173ffffffffffffffffffffffffffffffffffffffff161415610b1f576040517f08c379a0000000000000000000000000000000000000000000000000000000008152600401610b1690612fb8565b60405180910390fd5b80915050919050565b60008073ffffffffffffffffffffffffffffffffffffffff168273ffffffffffffffffffffffffffffffffffffffff161415610b99576040517f08c379a0000000000000000000000000000000000000000000000000000000008152600401610b9090612f98565b60405180910390fd5b600360008373ffffffffffffffffffffffffffffffffffffffff1673ffffffffffffffffffffffffffffffffffffffff168152602001908152602001600020549050919050565b610be86111bd565b73ffffffffffffffffffffffffffffffffffffffff16610c06610cee565b73ffffffffffffffffffffffffffffffffffffffff1614610c5c576040517f08c379a0000000000000000000000000000000000000000000000000000000008152600401610c5390613058565b60405180910390fd5b610c66600061189b565b565b610c706111bd565b73ffffffffffffffffffffffffffffffffffffffff16610c8e610cee565b73ffffffffffffffffffffffffffffffffffffffff1614610ce4576040517f08c379a0000000000000000000000000000000000000000000000000000000008152600401610cdb90613058565b60405180910390fd5b610cec611961565b565b6000600660019054906101000a900473ffffffffffffffffffffffffffffffffffffffff16905090565b606060018054610d279061331d565b80601f0160208091040260200160405190810160405280929190818152602001828054610d539061331d565b8015610da05780601f10610d7557610100808354040283529160200191610da0565b820191906000526020600020905b815481529060010190602001808311610d8357829003601f168201915b5050505050905090565b610dbc610db56111bd565b8383611a04565b5050565b610dd1610dcb6111bd565b8361146f565b610e10576040517f08c379a0000000000000000000000000000000000000000000000000000000008152600401610e07906130b8565b60405180910390fd5b610e1c84848484611b71565b50505050565b6060610e2d82611bcd565b9050919050565b600a8054610e419061331d565b80601f0160208091040260200160405190810160405280929190818152602001828054610e6d9061331d565b8015610eba5780601f10610e8f57610100808354040283529160200191610eba565b820191906000526020600020905b815481529060010190602001808311610e9d57829003601f168201915b505050505081565b6000600560008473ffffffffffffffffffffffffffffffffffffffff1673ffffffffffffffffffffffffffffffffffffffff16815260200190815260200160002060008373ffffffffffffffffffffffffffffffffffffffff1673ffffffffffffffffffffffffffffffffffffffff16815260200190815260200160002060009054906101000a900460ff16905092915050565b610f5e6111bd565b73ffffffffffffffffffffffffffffffffffffffff16610f7c610cee565b73ffffffffffffffffffffffffffffffffffffffff1614610fd2576040517f08c379a0000000000000000000000000000000000000000000000000000000008152600401610fc990613058565b60405180910390fd5b600073ffffffffffffffffffffffffffffffffffffffff168173ffffffffffffffffffffffffffffffffffffffff161415611042576040517f08c379a000000000000000000000000000000000000000000000000000000000815260040161103990612e98565b60405180910390fd5b61104b8161189b565b50565b6110e4816040516024016110629190612dc8565b6040516020818303038152906040527f41304fac000000000000000000000000000000000000000000000000000000007bffffffffffffffffffffffffffffffffffffffffffffffffffffffff19166020820180517bffffffffffffffffffffffffffffffffffffffffffffffffffffffff8381831617835250505050611d1f565b50565b60007f01ffc9a7000000000000000000000000000000000000000000000000000000007bffffffffffffffffffffffffffffffffffffffffffffffffffffffff1916827bffffffffffffffffffffffffffffffffffffffffffffffffffffffff1916149050919050565b60008073ffffffffffffffffffffffffffffffffffffffff166002600084815260200190815260200160002060009054906101000a900473ffffffffffffffffffffffffffffffffffffffff1673ffffffffffffffffffffffffffffffffffffffff1614159050919050565b600033905090565b816004600083815260200190815260200160002060006101000a81548173ffffffffffffffffffffffffffffffffffffffff021916908373ffffffffffffffffffffffffffffffffffffffff160217905550808273ffffffffffffffffffffffffffffffffffffffff1661123883610a76565b73ffffffffffffffffffffffffffffffffffffffff167f8c5be1e5ebec7d5bd14f71427d1e84f3dd0314c0f7b2291e5b200ac8c7c3b92560405160405180910390a45050565b6113168282604051602401611294929190612dea565b6040516020818303038152906040527f9710a9d0000000000000000000000000000000000000000000000000000000007bffffffffffffffffffffffffffffffffffffffffffffffffffffffff19166020820180517bffffffffffffffffffffffffffffffffffffffffffffffffffffffff8381831617835250505050611d1f565b5050565b600081600001549050919050565b611342828260405180602001604052806000815250611d48565b5050565b61134f82611151565b61138e576040517f08c379a000000000000000000000000000000000000000000000000000000000815260040161138590612fd8565b60405180910390fd5b806007600084815260200190815260200160002090805190602001906113b5929190612574565b505050565b6001816000016000828254019250508190555050565b61146a8383836040516024016113e893929190612e1a565b6040516020818303038152906040527fe3849f79000000000000000000000000000000000000000000000000000000007bffffffffffffffffffffffffffffffffffffffffffffffffffffffff19166020820180517bffffffffffffffffffffffffffffffffffffffffffffffffffffffff8381831617835250505050611d1f565b505050565b600061147a82611151565b6114b9576040517f08c379a00000000000000000000000000000000000000000000000000000000081526004016114b090612f38565b60405180910390fd5b60006114c483610a76565b90508073ffffffffffffffffffffffffffffffffffffffff168473ffffffffffffffffffffffffffffffffffffffff16148061150657506115058185610ec2565b5b8061154457508373ffffffffffffffffffffffffffffffffffffffff1661152c846105af565b73ffffffffffffffffffffffffffffffffffffffff16145b91505092915050565b8273ffffffffffffffffffffffffffffffffffffffff1661156d82610a76565b73ffffffffffffffffffffffffffffffffffffffff16146115c3576040517f08c379a00000000000000000000000000000000000000000000000000000000081526004016115ba90612eb8565b60405180910390fd5b600073ffffffffffffffffffffffffffffffffffffffff168273ffffffffffffffffffffffffffffffffffffffff161415611633576040517f08c379a000000000000000000000000000000000000000000000000000000000815260040161162a90612ef8565b60405180910390fd5b61163e838383611da3565b6116496000826111c5565b6001600360008573ffffffffffffffffffffffffffffffffffffffff1673ffffffffffffffffffffffffffffffffffffffff16815260200190815260200160002060008282546116999190613233565b925050819055506001600360008473ffffffffffffffffffffffffffffffffffffffff1673ffffffffffffffffffffffffffffffffffffffff16815260200190815260200160002060008282546116f091906131ac565b92505081905550816002600083815260200190815260200160002060006101000a81548173ffffffffffffffffffffffffffffffffffffffff021916908373ffffffffffffffffffffffffffffffffffffffff160217905550808273ffffffffffffffffffffffffffffffffffffffff168473ffffffffffffffffffffffffffffffffffffffff167fddf252ad1be2c89b69c2b068fc378daa952ba7f163c4a11628f55a4df523b3ef60405160405180910390a46117af838383611dfb565b505050565b6117bc610a5f565b6117fb576040517f08c379a00000000000000000000000000000000000000000000000000000000081526004016117f290612e58565b60405180910390fd5b6000600660006101000a81548160ff0219169083151502179055507f5db9ee0a495bf2e6ff9c91a7834c1ba4fdd244a5e8aa4e537bd38aeae4b073aa61183f6111bd565b60405161184c9190612d1d565b60405180910390a1565b61185f81611e00565b7f64776496a9bd05a10b89b0b2b8aec45691e64e2563be349a3b1cb2d0dd5ff0253382604051611890929190612d84565b60405180910390a150565b6000600660019054906101000a900473ffffffffffffffffffffffffffffffffffffffff16905081600660016101000a81548173ffffffffffffffffffffffffffffffffffffffff021916908373ffffffffffffffffffffffffffffffffffffffff1602179055508173ffffffffffffffffffffffffffffffffffffffff168173ffffffffffffffffffffffffffffffffffffffff167f8be0079c531659141344cd1fd0a4f28419497f9722a3daafe3b4186f6b6457e060405160405180910390a35050565b611969610a5f565b156119a9576040517f08c379a00000000000000000000000000000000000000000000000000000000081526004016119a090612f58565b60405180910390fd5b6001600660006101000a81548160ff0219169083151502179055507f62e78cea01bee320cd4e420270b5ea74000d11b0c9f74754ebdbfc544b05a2586119ed6111bd565b6040516119fa9190612d1d565b60405180910390a1565b8173ffffffffffffffffffffffffffffffffffffffff168373ffffffffffffffffffffffffffffffffffffffff161415611a73576040517f08c379a0000000000000000000000000000000000000000000000000000000008152600401611a6a90612f18565b60405180910390fd5b80600560008573ffffffffffffffffffffffffffffffffffffffff1673ffffffffffffffffffffffffffffffffffffffff16815260200190815260200160002060008473ffffffffffffffffffffffffffffffffffffffff1673ffffffffffffffffffffffffffffffffffffffff16815260200190815260200160002060006101000a81548160ff0219169083151502179055508173ffffffffffffffffffffffffffffffffffffffff168373ffffffffffffffffffffffffffffffffffffffff167f17307eab39ab6107e8899845ad3d59bd9653f200f220920489ca2b5937696c3183604051611b649190612dad565b60405180910390a3505050565b611b7c84848461154d565b611b8884848484611e53565b611bc7576040517f08c379a0000000000000000000000000000000000000000000000000000000008152600401611bbe90612e78565b60405180910390fd5b50505050565b6060611bd882611151565b611c17576040517f08c379a0000000000000000000000000000000000000000000000000000000008152600401611c0e90613018565b60405180910390fd5b6000600760008481526020019081526020016000208054611c379061331d565b80601f0160208091040260200160405190810160405280929190818152602001828054611c639061331d565b8015611cb05780601f10611c8557610100808354040283529160200191611cb0565b820191906000526020600020905b815481529060010190602001808311611c9357829003601f168201915b505050505090506000611cc1611fea565b9050600081511415611cd7578192505050611d1a565b600082511115611d0c578082604051602001611cf4929190612cf9565b60405160208183030381529060405292505050611d1a565b611d1584612001565b925050505b919050565b60008151905060006a636f6e736f6c652e6c6f679050602083016000808483855afa5050505050565b611d5283836120a8565b611d5f6000848484611e53565b611d9e576040517f08c379a0000000000000000000000000000000000000000000000000000000008152600401611d9590612e78565b60405180910390fd5b505050565b611dab610a5f565b15611deb576040517f08c379a0000000000000000000000000000000000000000000000000000000008152600401611de290612f58565b60405180910390fd5b611df6838383612282565b505050565b505050565b611e0981612287565b6000600760008381526020019081526020016000208054611e299061331d565b905014611e5057600760008281526020019081526020016000206000611e4f91906125fa565b5b50565b6000611e748473ffffffffffffffffffffffffffffffffffffffff166123a4565b15611fdd578373ffffffffffffffffffffffffffffffffffffffff1663150b7a02611e9d6111bd565b8786866040518563ffffffff1660e01b8152600401611ebf9493929190612d38565b602060405180830381600087803b158015611ed957600080fd5b505af1925050508015611f0a57506040513d601f19601f82011682018060405250810190611f0791906128f8565b60015b611f8d573d8060008114611f3a576040519150601f19603f3d011682016040523d82523d6000602084013e611f3f565b606091505b50600081511415611f85576040517f08c379a0000000000000000000000000000000000000000000000000000000008152600401611f7c90612e78565b60405180910390fd5b805181602001fd5b63150b7a0260e01b7bffffffffffffffffffffffffffffffffffffffffffffffffffffffff1916817bffffffffffffffffffffffffffffffffffffffffffffffffffffffff191614915050611fe2565b600190505b949350505050565b606060405180602001604052806000815250905090565b606061200c82611151565b61204b576040517f08c379a000000000000000000000000000000000000000000000000000000000815260040161204290613078565b60405180910390fd5b6000612055611fea565b9050600081511161207557604051806020016040528060008152506120a0565b8061207f846123c7565b604051602001612090929190612cf9565b6040516020818303038152906040525b915050919050565b600073ffffffffffffffffffffffffffffffffffffffff168273ffffffffffffffffffffffffffffffffffffffff161415612118576040517f08c379a000000000000000000000000000000000000000000000000000000000815260040161210f90612ff8565b60405180910390fd5b61212181611151565b15612161576040517f08c379a000000000000000000000000000000000000000000000000000000000815260040161215890612ed8565b60405180910390fd5b61216d60008383611da3565b6001600360008473ffffffffffffffffffffffffffffffffffffffff1673ffffffffffffffffffffffffffffffffffffffff16815260200190815260200160002060008282546121bd91906131ac565b92505081905550816002600083815260200190815260200160002060006101000a81548173ffffffffffffffffffffffffffffffffffffffff021916908373ffffffffffffffffffffffffffffffffffffffff160217905550808273ffffffffffffffffffffffffffffffffffffffff16600073ffffffffffffffffffffffffffffffffffffffff167fddf252ad1be2c89b69c2b068fc378daa952ba7f163c4a11628f55a4df523b3ef60405160405180910390a461227e60008383611dfb565b5050565b505050565b600061229282610a76565b90506122a081600084611da3565b6122ab6000836111c5565b6001600360008373ffffffffffffffffffffffffffffffffffffffff1673ffffffffffffffffffffffffffffffffffffffff16815260200190815260200160002060008282546122fb9190613233565b925050819055506002600083815260200190815260200160002060006101000a81549073ffffffffffffffffffffffffffffffffffffffff021916905581600073ffffffffffffffffffffffffffffffffffffffff168273ffffffffffffffffffffffffffffffffffffffff167fddf252ad1be2c89b69c2b068fc378daa952ba7f163c4a11628f55a4df523b3ef60405160405180910390a46123a081600084611dfb565b5050565b6000808273ffffffffffffffffffffffffffffffffffffffff163b119050919050565b6060600082141561240f576040518060400160405280600181526020017f3000000000000000000000000000000000000000000000000000000000000000815250905061256f565b600082905060005b6000821461244157808061242a90613380565b915050600a8261243a9190613202565b9150612417565b60008167ffffffffffffffff811115612483577f4e487b7100000000000000000000000000000000000000000000000000000000600052604160045260246000fd5b6040519080825280601f01601f1916602001820160405280156124b55781602001600182028036833780820191505090505b5090505b60008514612568576001826124ce9190613233565b9150600a856124dd91906133c9565b60306124e991906131ac565b60f81b818381518110612525577f4e487b7100000000000000000000000000000000000000000000000000000000600052603260045260246000fd5b60200101907effffffffffffffffffffffffffffffffffffffffffffffffffffffffffffff1916908160001a905350600a856125619190613202565b94506124b9565b8093505050505b919050565b8280546125809061331d565b90600052602060002090601f0160209004810192826125a257600085556125e9565b82601f106125bb57805160ff19168380011785556125e9565b828001600101855582156125e9579182015b828111156125e85782518255916020019190600101906125cd565b5b5090506125f6919061263a565b5090565b5080546126069061331d565b6000825580601f106126185750612637565b601f016020900490600052602060002090810190612636919061263a565b5b50565b5b8082111561265357600081600090555060010161263b565b5090565b600061266a61266584613138565b613113565b90508281526020810184848401111561268257600080fd5b61268d8482856132db565b509392505050565b6000813590506126a481613a5e565b92915050565b6000813590506126b981613a75565b92915050565b6000813590506126ce81613a8c565b92915050565b6000815190506126e381613a8c565b92915050565b600082601f8301126126fa57600080fd5b813561270a848260208601612657565b91505092915050565b60008135905061272281613aa3565b92915050565b60006020828403121561273a57600080fd5b600061274884828501612695565b91505092915050565b6000806040838503121561276457600080fd5b600061277285828601612695565b925050602061278385828601612695565b9150509250929050565b6000806000606084860312156127a257600080fd5b60006127b086828701612695565b93505060206127c186828701612695565b92505060406127d286828701612713565b9150509250925092565b600080600080608085870312156127f257600080fd5b600061280087828801612695565b945050602061281187828801612695565b935050604061282287828801612713565b925050606085013567ffffffffffffffff81111561283f57600080fd5b61284b878288016126e9565b91505092959194509250565b6000806040838503121561286a57600080fd5b600061287885828601612695565b9250506020612889858286016126aa565b9150509250929050565b600080604083850312156128a657600080fd5b60006128b485828601612695565b92505060206128c585828601612713565b9150509250929050565b6000602082840312156128e157600080fd5b60006128ef848285016126bf565b91505092915050565b60006020828403121561290a57600080fd5b6000612918848285016126d4565b91505092915050565b60006020828403121561293357600080fd5b600061294184828501612713565b91505092915050565b61295381613267565b82525050565b61296281613279565b82525050565b600061297382613169565b61297d818561317f565b935061298d8185602086016132ea565b612996816134b6565b840191505092915050565b60006129ac82613174565b6129b68185613190565b93506129c68185602086016132ea565b6129cf816134b6565b840191505092915050565b60006129e582613174565b6129ef81856131a1565b93506129ff8185602086016132ea565b80840191505092915050565b6000612a18601483613190565b9150612a23826134c7565b602082019050919050565b6000612a3b603283613190565b9150612a46826134f0565b604082019050919050565b6000612a5e602683613190565b9150612a698261353f565b604082019050919050565b6000612a81602583613190565b9150612a8c8261358e565b604082019050919050565b6000612aa4601c83613190565b9150612aaf826135dd565b602082019050919050565b6000612ac7602483613190565b9150612ad282613606565b604082019050919050565b6000612aea601983613190565b9150612af582613655565b602082019050919050565b6000612b0d602c83613190565b9150612b188261367e565b604082019050919050565b6000612b30601083613190565b9150612b3b826136cd565b602082019050919050565b6000612b53603883613190565b9150612b5e826136f6565b604082019050919050565b6000612b76602a83613190565b9150612b8182613745565b604082019050919050565b6000612b99602983613190565b9150612ba482613794565b604082019050919050565b6000612bbc602e83613190565b9150612bc7826137e3565b604082019050919050565b6000612bdf602083613190565b9150612bea82613832565b602082019050919050565b6000612c02603183613190565b9150612c0d8261385b565b604082019050919050565b6000612c25602c83613190565b9150612c30826138aa565b604082019050919050565b6000612c48602083613190565b9150612c53826138f9565b602082019050919050565b6000612c6b602f83613190565b9150612c7682613922565b604082019050919050565b6000612c8e602183613190565b9150612c9982613971565b604082019050919050565b6000612cb1603183613190565b9150612cbc826139c0565b604082019050919050565b6000612cd4603083613190565b9150612cdf82613a0f565b604082019050919050565b612cf3816132d1565b82525050565b6000612d0582856129da565b9150612d1182846129da565b91508190509392505050565b6000602082019050612d32600083018461294a565b92915050565b6000608082019050612d4d600083018761294a565b612d5a602083018661294a565b612d676040830185612cea565b8181036060830152612d798184612968565b905095945050505050565b6000604082019050612d99600083018561294a565b612da66020830184612cea565b9392505050565b6000602082019050612dc26000830184612959565b92915050565b60006020820190508181036000830152612de281846129a1565b905092915050565b60006040820190508181036000830152612e0481856129a1565b9050612e136020830184612cea565b9392505050565b60006060820190508181036000830152612e3481866129a1565b9050612e436020830185612cea565b612e50604083018461294a565b949350505050565b60006020820190508181036000830152612e7181612a0b565b9050919050565b60006020820190508181036000830152612e9181612a2e565b9050919050565b60006020820190508181036000830152612eb181612a51565b9050919050565b60006020820190508181036000830152612ed181612a74565b9050919050565b60006020820190508181036000830152612ef181612a97565b9050919050565b60006020820190508181036000830152612f1181612aba565b9050919050565b60006020820190508181036000830152612f3181612add565b9050919050565b60006020820190508181036000830152612f5181612b00565b9050919050565b60006020820190508181036000830152612f7181612b23565b9050919050565b60006020820190508181036000830152612f9181612b46565b9050919050565b60006020820190508181036000830152612fb181612b69565b9050919050565b60006020820190508181036000830152612fd181612b8c565b9050919050565b60006020820190508181036000830152612ff181612baf565b9050919050565b6000602082019050818103600083015261301181612bd2565b9050919050565b6000602082019050818103600083015261303181612bf5565b9050919050565b6000602082019050818103600083015261305181612c18565b9050919050565b6000602082019050818103600083015261307181612c3b565b9050919050565b6000602082019050818103600083015261309181612c5e565b9050919050565b600060208201905081810360008301526130b181612c81565b9050919050565b600060208201905081810360008301526130d181612ca4565b9050919050565b600060208201905081810360008301526130f181612cc7565b9050919050565b600060208201905061310d6000830184612cea565b92915050565b600061311d61312e565b9050613129828261334f565b919050565b6000604051905090565b600067ffffffffffffffff82111561315357613152613487565b5b61315c826134b6565b9050602081019050919050565b600081519050919050565b600081519050919050565b600082825260208201905092915050565b600082825260208201905092915050565b600081905092915050565b60006131b7826132d1565b91506131c2836132d1565b9250827fffffffffffffffffffffffffffffffffffffffffffffffffffffffffffffffff038211156131f7576131f66133fa565b5b828201905092915050565b600061320d826132d1565b9150613218836132d1565b92508261322857613227613429565b5b828204905092915050565b600061323e826132d1565b9150613249836132d1565b92508282101561325c5761325b6133fa565b5b828203905092915050565b6000613272826132b1565b9050919050565b60008115159050919050565b60007fffffffff0000000000000000000000000000000000000000000000000000000082169050919050565b600073ffffffffffffffffffffffffffffffffffffffff82169050919050565b6000819050919050565b82818337600083830152505050565b60005b838110156133085780820151818401526020810190506132ed565b83811115613317576000848401525b50505050565b6000600282049050600182168061333557607f821691505b6020821081141561334957613348613458565b5b50919050565b613358826134b6565b810181811067ffffffffffffffff8211171561337757613376613487565b5b80604052505050565b600061338b826132d1565b91507fffffffffffffffffffffffffffffffffffffffffffffffffffffffffffffffff8214156133be576133bd6133fa565b5b600182019050919050565b60006133d4826132d1565b91506133df836132d1565b9250826133ef576133ee613429565b5b828206905092915050565b7f4e487b7100000000000000000000000000000000000000000000000000000000600052601160045260246000fd5b7f4e487b7100000000000000000000000000000000000000000000000000000000600052601260045260246000fd5b7f4e487b7100000000000000000000000000000000000000000000000000000000600052602260045260246000fd5b7f4e487b7100000000000000000000000000000000000000000000000000000000600052604160045260246000fd5b6000601f19601f8301169050919050565b7f5061757361626c653a206e6f7420706175736564000000000000000000000000600082015250565b7f4552433732313a207472616e7366657220746f206e6f6e20455243373231526560008201527f63656976657220696d706c656d656e7465720000000000000000000000000000602082015250565b7f4f776e61626c653a206e6577206f776e657220697320746865207a65726f206160008201527f6464726573730000000000000000000000000000000000000000000000000000602082015250565b7f4552433732313a207472616e736665722066726f6d20696e636f72726563742060008201527f6f776e6572000000000000000000000000000000000000000000000000000000602082015250565b7f4552433732313a20746f6b656e20616c7265616479206d696e74656400000000600082015250565b7f4552433732313a207472616e7366657220746f20746865207a65726f2061646460008201527f7265737300000000000000000000000000000000000000000000000000000000602082015250565b7f4552433732313a20617070726f766520746f2063616c6c657200000000000000600082015250565b7f4552433732313a206f70657261746f7220717565727920666f72206e6f6e657860008201527f697374656e7420746f6b656e0000000000000000000000000000000000000000602082015250565b7f5061757361626c653a2070617573656400000000000000000000000000000000600082015250565b7f4552433732313a20617070726f76652063616c6c6572206973206e6f74206f7760008201527f6e6572206e6f7220617070726f76656420666f7220616c6c0000000000000000602082015250565b7f4552433732313a2062616c616e636520717565727920666f7220746865207a6560008201527f726f206164647265737300000000000000000000000000000000000000000000602082015250565b7f4552433732313a206f776e657220717565727920666f72206e6f6e657869737460008201527f656e7420746f6b656e0000000000000000000000000000000000000000000000602082015250565b7f45524337323155524953746f726167653a2055524920736574206f66206e6f6e60008201527f6578697374656e7420746f6b656e000000000000000000000000000000000000602082015250565b7f4552433732313a206d696e7420746f20746865207a65726f2061646472657373600082015250565b7f45524337323155524953746f726167653a2055524920717565727920666f722060008201527f6e6f6e6578697374656e7420746f6b656e000000000000000000000000000000602082015250565b7f4552433732313a20617070726f76656420717565727920666f72206e6f6e657860008201527f697374656e7420746f6b656e0000000000000000000000000000000000000000602082015250565b7f4f776e61626c653a2063616c6c6572206973206e6f7420746865206f776e6572600082015250565b7f4552433732314d657461646174613a2055524920717565727920666f72206e6f60008201527f6e6578697374656e7420746f6b656e0000000000000000000000000000000000602082015250565b7f4552433732313a20617070726f76616c20746f2063757272656e74206f776e6560008201527f7200000000000000000000000000000000000000000000000000000000000000602082015250565b7f4552433732313a207472616e736665722063616c6c6572206973206e6f74206f60008201527f776e6572206e6f7220617070726f766564000000000000000000000000000000602082015250565b7f4552433732314275726e61626c653a2063616c6c6572206973206e6f74206f7760008201527f6e6572206e6f7220617070726f76656400000000000000000000000000000000602082015250565b613a6781613267565b8114613a7257600080fd5b50565b613a7e81613279565b8114613a8957600080fd5b50565b613a9581613285565b8114613aa057600080fd5b50565b613aac816132d1565b8114613ab757600080fd5b5056fe41206e657720746f6b656e207769746820494420257320776173206d696e74656420746f202573a2646970667358221220cdf0ae0a3017541ca1019911a2bd529637b1e7182647d30940ccebec5d56b26b64736f6c63430008040033",
  "linkReferences": {},
  "deployedLinkReferences": {}
}